{
  "_format": "hh-sol-artifact-1",
  "contractName": "OpenAvatarGen0ExampleMutableCanvasRenderer",
  "sourceName": "contracts/extensions/example/OpenAvatarGen0ExampleMutableCanvasRenderer.sol",
  "abi": [
    {
      "inputs": [
        {
          "internalType": "address",
          "name": "ownerProxy",
          "type": "address"
        }
      ],
      "stateMutability": "nonpayable",
      "type": "constructor"
    },
    {
      "inputs": [],
      "name": "AlreadyInitialized",
      "type": "error"
    },
    {
      "inputs": [
        {
          "internalType": "uint8",
          "name": "canvasId",
          "type": "uint8"
        }
      ],
      "name": "CanvasDoesNotExist",
      "type": "error"
    },
    {
      "inputs": [
        {
          "internalType": "address",
          "name": "contractAddress",
          "type": "address"
        },
        {
          "internalType": "bytes4",
          "name": "interfaceId",
          "type": "bytes4"
        }
      ],
      "name": "InterfaceUnsupported",
      "type": "error"
    },
    {
      "inputs": [],
      "name": "InvalidCanvasBytesPerPixel",
      "type": "error"
    },
    {
      "inputs": [
        {
          "internalType": "uint8",
          "name": "canvasId",
          "type": "uint8"
        },
        {
          "internalType": "uint256",
          "name": "invalidNumBytes",
          "type": "uint256"
        }
      ],
      "name": "InvalidCanvasSize",
      "type": "error"
    },
    {
      "inputs": [
        {
          "internalType": "uint256",
          "name": "maskLength",
          "type": "uint256"
        },
        {
          "internalType": "uint256",
          "name": "canvasSize",
          "type": "uint256"
        }
      ],
      "name": "InvalidMaskLength",
      "type": "error"
    },
    {
      "anonymous": false,
      "inputs": [
        {
          "indexed": true,
          "internalType": "address",
          "name": "previousOwner",
          "type": "address"
        },
        {
          "indexed": true,
          "internalType": "address",
          "name": "newOwner",
          "type": "address"
        }
      ],
      "name": "OwnershipTransferred",
      "type": "event"
    },
    {
      "stateMutability": "payable",
      "type": "fallback"
    },
    {
      "inputs": [],
      "name": "CANVAS_ID",
      "outputs": [
        {
          "internalType": "uint8",
          "name": "",
          "type": "uint8"
        }
      ],
      "stateMutability": "view",
      "type": "function"
    },
    {
      "inputs": [],
      "name": "IEND",
      "outputs": [
        {
          "internalType": "bytes",
          "name": "",
          "type": "bytes"
        }
      ],
      "stateMutability": "view",
      "type": "function"
    },
    {
      "inputs": [],
      "name": "LAYER_INDEX_BODY",
      "outputs": [
        {
          "internalType": "uint8",
          "name": "",
          "type": "uint8"
        }
      ],
      "stateMutability": "view",
      "type": "function"
    },
    {
      "inputs": [],
      "name": "LAYER_INDEX_BOTTOMWEAR",
      "outputs": [
        {
          "internalType": "uint8",
          "name": "",
          "type": "uint8"
        }
      ],
      "stateMutability": "view",
      "type": "function"
    },
    {
      "inputs": [],
      "name": "LAYER_INDEX_EYEWEAR",
      "outputs": [
        {
          "internalType": "uint8",
          "name": "",
          "type": "uint8"
        }
      ],
      "stateMutability": "view",
      "type": "function"
    },
    {
      "inputs": [],
      "name": "LAYER_INDEX_FACEWEAR",
      "outputs": [
        {
          "internalType": "uint8",
          "name": "",
          "type": "uint8"
        }
      ],
      "stateMutability": "view",
      "type": "function"
    },
    {
      "inputs": [],
      "name": "LAYER_INDEX_FACIAL_HAIR",
      "outputs": [
        {
          "internalType": "uint8",
          "name": "",
          "type": "uint8"
        }
      ],
      "stateMutability": "view",
      "type": "function"
    },
    {
      "inputs": [],
      "name": "LAYER_INDEX_FOOTWEAR",
      "outputs": [
        {
          "internalType": "uint8",
          "name": "",
          "type": "uint8"
        }
      ],
      "stateMutability": "view",
      "type": "function"
    },
    {
      "inputs": [],
      "name": "LAYER_INDEX_HAIR",
      "outputs": [
        {
          "internalType": "uint8",
          "name": "",
          "type": "uint8"
        }
      ],
      "stateMutability": "view",
      "type": "function"
    },
    {
      "inputs": [],
      "name": "LAYER_INDEX_HANDWEAR",
      "outputs": [
        {
          "internalType": "uint8",
          "name": "",
          "type": "uint8"
        }
      ],
      "stateMutability": "view",
      "type": "function"
    },
    {
      "inputs": [],
      "name": "LAYER_INDEX_JEWELRY",
      "outputs": [
        {
          "internalType": "uint8",
          "name": "",
          "type": "uint8"
        }
      ],
      "stateMutability": "view",
      "type": "function"
    },
    {
      "inputs": [],
      "name": "LAYER_INDEX_LEFT_EYE",
      "outputs": [
        {
          "internalType": "uint8",
          "name": "",
          "type": "uint8"
        }
      ],
      "stateMutability": "view",
      "type": "function"
    },
    {
      "inputs": [],
      "name": "LAYER_INDEX_MAKEUP",
      "outputs": [
        {
          "internalType": "uint8",
          "name": "",
          "type": "uint8"
        }
      ],
      "stateMutability": "view",
      "type": "function"
    },
    {
      "inputs": [],
      "name": "LAYER_INDEX_OUTERWEAR",
      "outputs": [
        {
          "internalType": "uint8",
          "name": "",
          "type": "uint8"
        }
      ],
      "stateMutability": "view",
      "type": "function"
    },
    {
      "inputs": [],
      "name": "LAYER_INDEX_RIGHT_EYE",
      "outputs": [
        {
          "internalType": "uint8",
          "name": "",
          "type": "uint8"
        }
      ],
      "stateMutability": "view",
      "type": "function"
    },
    {
      "inputs": [],
      "name": "LAYER_INDEX_TATTOOS",
      "outputs": [
        {
          "internalType": "uint8",
          "name": "",
          "type": "uint8"
        }
      ],
      "stateMutability": "view",
      "type": "function"
    },
    {
      "inputs": [],
      "name": "LAYER_INDEX_TOPWEAR",
      "outputs": [
        {
          "internalType": "uint8",
          "name": "",
          "type": "uint8"
        }
      ],
      "stateMutability": "view",
      "type": "function"
    },
    {
      "inputs": [],
      "name": "OPAQUE",
      "outputs": [
        {
          "internalType": "bytes1",
          "name": "",
          "type": "bytes1"
        }
      ],
      "stateMutability": "view",
      "type": "function"
    },
    {
      "inputs": [],
      "name": "OPENAVATAR_GENERATION_ZERO",
      "outputs": [
        {
          "internalType": "uint256",
          "name": "",
          "type": "uint256"
        }
      ],
      "stateMutability": "view",
      "type": "function"
    },
    {
      "inputs": [],
      "name": "PNG_SIGNATURE",
      "outputs": [
        {
          "internalType": "bytes",
          "name": "",
          "type": "bytes"
        }
      ],
      "stateMutability": "view",
      "type": "function"
    },
    {
      "inputs": [],
      "name": "SVG_SCALE",
      "outputs": [
        {
          "internalType": "uint256",
          "name": "",
          "type": "uint256"
        }
      ],
      "stateMutability": "view",
      "type": "function"
    },
    {
      "inputs": [],
      "name": "TRANSPARENT",
      "outputs": [
        {
          "internalType": "bytes1",
          "name": "",
          "type": "bytes1"
        }
      ],
      "stateMutability": "view",
      "type": "function"
    },
    {
      "inputs": [],
      "name": "canvasId",
      "outputs": [
        {
          "internalType": "uint8",
          "name": "",
          "type": "uint8"
        }
      ],
      "stateMutability": "view",
      "type": "function"
    },
    {
      "inputs": [
        {
          "internalType": "contract ENS",
          "name": "ens",
          "type": "address"
        },
        {
          "internalType": "address",
          "name": "claimant",
          "type": "address"
        }
      ],
      "name": "claimReverseENS",
      "outputs": [
        {
          "internalType": "bytes32",
          "name": "",
          "type": "bytes32"
        }
      ],
      "stateMutability": "nonpayable",
      "type": "function"
    },
    {
      "inputs": [
        {
          "internalType": "uint8",
          "name": "canvasId",
          "type": "uint8"
        },
        {
          "components": [
            {
              "internalType": "uint8",
              "name": "layer",
              "type": "uint8"
            },
            {
              "internalType": "uint8",
              "name": "pattern",
              "type": "uint8"
            },
            {
              "internalType": "uint8",
              "name": "palette",
              "type": "uint8"
            }
          ],
          "internalType": "struct LayerPatternPalette[]",
          "name": "layerPatternPalette",
          "type": "tuple[]"
        }
      ],
      "name": "createLayerComposition",
      "outputs": [
        {
          "internalType": "bytes",
          "name": "",
          "type": "bytes"
        }
      ],
      "stateMutability": "view",
      "type": "function"
    },
    {
      "inputs": [
        {
          "internalType": "bytes",
          "name": "image",
          "type": "bytes"
        },
        {
          "internalType": "uint8",
          "name": "canvasId",
          "type": "uint8"
        },
        {
          "internalType": "uint8",
          "name": "layer",
          "type": "uint8"
        },
        {
          "internalType": "uint8",
          "name": "pattern",
          "type": "uint8"
        },
        {
          "internalType": "uint8",
          "name": "palette",
          "type": "uint8"
        }
      ],
      "name": "drawLayer",
      "outputs": [
        {
          "internalType": "bytes",
          "name": "",
          "type": "bytes"
        }
      ],
      "stateMutability": "view",
      "type": "function"
    },
    {
      "inputs": [
        {
          "internalType": "bytes",
          "name": "out",
          "type": "bytes"
        },
        {
          "internalType": "uint8",
          "name": "canvasId",
          "type": "uint8"
        },
        {
          "components": [
            {
              "internalType": "uint8",
              "name": "layer",
              "type": "uint8"
            },
            {
              "internalType": "uint8",
              "name": "pattern",
              "type": "uint8"
            },
            {
              "internalType": "uint8",
              "name": "palette",
              "type": "uint8"
            }
          ],
          "internalType": "struct LayerPatternPalette[]",
          "name": "layerPatternPalette",
          "type": "tuple[]"
        }
      ],
      "name": "drawLayerComposition",
      "outputs": [
        {
          "internalType": "bytes",
          "name": "",
          "type": "bytes"
        }
      ],
      "stateMutability": "view",
      "type": "function"
    },
    {
      "inputs": [
        {
          "internalType": "bytes",
          "name": "image",
          "type": "bytes"
        },
        {
          "internalType": "bytes",
          "name": "mask",
          "type": "bytes"
        },
        {
          "internalType": "uint8",
          "name": "canvasId",
          "type": "uint8"
        },
        {
          "internalType": "uint8",
          "name": "layer",
          "type": "uint8"
        },
        {
          "internalType": "uint8",
          "name": "pattern",
          "type": "uint8"
        },
        {
          "internalType": "uint8",
          "name": "palette",
          "type": "uint8"
        }
      ],
      "name": "drawMaskedLayer",
      "outputs": [
        {
          "internalType": "bytes",
          "name": "",
          "type": "bytes"
        }
      ],
      "stateMutability": "view",
      "type": "function"
    },
    {
      "inputs": [
        {
          "internalType": "bytes",
          "name": "image",
          "type": "bytes"
        },
        {
          "internalType": "bytes",
          "name": "mask",
          "type": "bytes"
        },
        {
          "internalType": "uint8",
          "name": "canvasId",
          "type": "uint8"
        },
        {
          "components": [
            {
              "internalType": "uint8",
              "name": "width",
              "type": "uint8"
            },
            {
              "internalType": "uint8",
              "name": "height",
              "type": "uint8"
            },
            {
              "internalType": "uint8",
              "name": "offsetX",
              "type": "uint8"
            },
            {
              "internalType": "uint8",
              "name": "offsetY",
              "type": "uint8"
            },
            {
              "internalType": "uint8",
              "name": "paletteCode",
              "type": "uint8"
            }
          ],
          "internalType": "struct PatternHeader",
          "name": "header",
          "type": "tuple"
        },
        {
          "internalType": "bytes",
          "name": "pattern",
          "type": "bytes"
        },
        {
          "internalType": "bytes4[]",
          "name": "palette",
          "type": "bytes4[]"
        }
      ],
      "name": "drawMaskedPattern",
      "outputs": [
        {
          "internalType": "bytes",
          "name": "",
          "type": "bytes"
        }
      ],
      "stateMutability": "view",
      "type": "function"
    },
    {
      "inputs": [
        {
          "internalType": "uint8",
          "name": "canvasId",
          "type": "uint8"
        },
        {
          "internalType": "bytes32",
          "name": "dna",
          "type": "bytes32"
        }
      ],
      "name": "drawOpenAvatar",
      "outputs": [
        {
          "internalType": "bytes",
          "name": "",
          "type": "bytes"
        }
      ],
      "stateMutability": "view",
      "type": "function"
    },
    {
      "inputs": [
        {
          "internalType": "bytes",
          "name": "image",
          "type": "bytes"
        },
        {
          "internalType": "uint8",
          "name": "canvasId",
          "type": "uint8"
        },
        {
          "internalType": "bytes32",
          "name": "dna",
          "type": "bytes32"
        }
      ],
      "name": "drawOpenAvatarOverlay",
      "outputs": [
        {
          "internalType": "bytes",
          "name": "",
          "type": "bytes"
        }
      ],
      "stateMutability": "view",
      "type": "function"
    },
    {
      "inputs": [
        {
          "internalType": "bytes",
          "name": "image",
          "type": "bytes"
        },
        {
          "internalType": "uint8",
          "name": "canvasId",
          "type": "uint8"
        },
        {
          "components": [
            {
              "internalType": "uint8",
              "name": "width",
              "type": "uint8"
            },
            {
              "internalType": "uint8",
              "name": "height",
              "type": "uint8"
            },
            {
              "internalType": "uint8",
              "name": "offsetX",
              "type": "uint8"
            },
            {
              "internalType": "uint8",
              "name": "offsetY",
              "type": "uint8"
            },
            {
              "internalType": "uint8",
              "name": "paletteCode",
              "type": "uint8"
            }
          ],
          "internalType": "struct PatternHeader",
          "name": "header",
          "type": "tuple"
        },
        {
          "internalType": "bytes",
          "name": "pattern",
          "type": "bytes"
        },
        {
          "internalType": "bytes4[]",
          "name": "palette",
          "type": "bytes4[]"
        }
      ],
      "name": "drawPattern",
      "outputs": [
        {
          "internalType": "bytes",
          "name": "",
          "type": "bytes"
        }
      ],
      "stateMutability": "view",
      "type": "function"
    },
    {
      "inputs": [
        {
          "internalType": "bytes",
          "name": "data",
          "type": "bytes"
        },
        {
          "internalType": "uint256",
          "name": "width",
          "type": "uint256"
        },
        {
          "internalType": "uint256",
          "name": "height",
          "type": "uint256"
        },
        {
          "internalType": "bool",
          "name": "alpha",
          "type": "bool"
        }
      ],
      "name": "encodeBase64PNG",
      "outputs": [
        {
          "internalType": "bytes",
          "name": "",
          "type": "bytes"
        }
      ],
      "stateMutability": "pure",
      "type": "function"
    },
    {
      "inputs": [
        {
          "internalType": "bytes",
          "name": "data",
          "type": "bytes"
        },
        {
          "internalType": "uint256",
          "name": "width",
          "type": "uint256"
        },
        {
          "internalType": "uint256",
          "name": "height",
          "type": "uint256"
        },
        {
          "internalType": "bool",
          "name": "alpha",
          "type": "bool"
        },
        {
          "internalType": "uint256",
          "name": "svgWidth",
          "type": "uint256"
        },
        {
          "internalType": "uint256",
          "name": "svgHeight",
          "type": "uint256"
        }
      ],
      "name": "encodeBase64SVG",
      "outputs": [
        {
          "internalType": "bytes",
          "name": "",
          "type": "bytes"
        }
      ],
      "stateMutability": "pure",
      "type": "function"
    },
    {
      "inputs": [
        {
          "internalType": "uint256",
          "name": "width",
          "type": "uint256"
        },
        {
          "internalType": "uint256",
          "name": "height",
          "type": "uint256"
        },
        {
          "internalType": "bool",
          "name": "alpha",
          "type": "bool"
        }
      ],
      "name": "encodeIHDR",
      "outputs": [
        {
          "internalType": "bytes",
          "name": "",
          "type": "bytes"
        }
      ],
      "stateMutability": "pure",
      "type": "function"
    },
    {
      "inputs": [
        {
          "internalType": "bytes",
          "name": "data",
          "type": "bytes"
        },
        {
          "internalType": "uint256",
          "name": "width",
          "type": "uint256"
        },
        {
          "internalType": "uint256",
          "name": "height",
          "type": "uint256"
        },
        {
          "internalType": "bool",
          "name": "alpha",
          "type": "bool"
        }
      ],
      "name": "encodePNG",
      "outputs": [
        {
          "internalType": "bytes",
          "name": "",
          "type": "bytes"
        }
      ],
      "stateMutability": "pure",
      "type": "function"
    },
    {
      "inputs": [
        {
          "internalType": "bytes",
          "name": "data",
          "type": "bytes"
        },
        {
          "internalType": "uint256",
          "name": "width",
          "type": "uint256"
        },
        {
          "internalType": "uint256",
          "name": "height",
          "type": "uint256"
        },
        {
          "internalType": "bool",
          "name": "alpha",
          "type": "bool"
        },
        {
          "internalType": "uint256",
          "name": "svgWidth",
          "type": "uint256"
        },
        {
          "internalType": "uint256",
          "name": "svgHeight",
          "type": "uint256"
        }
      ],
      "name": "encodeSVG",
      "outputs": [
        {
          "internalType": "bytes",
          "name": "",
          "type": "bytes"
        }
      ],
      "stateMutability": "pure",
      "type": "function"
    },
    {
      "inputs": [],
      "name": "getCanvasId",
      "outputs": [
        {
          "internalType": "uint8",
          "name": "",
          "type": "uint8"
        }
      ],
      "stateMutability": "view",
      "type": "function"
    },
    {
      "inputs": [],
      "name": "getOpenAvatarGen0Assets",
      "outputs": [
        {
          "internalType": "address",
          "name": "",
          "type": "address"
        }
      ],
      "stateMutability": "view",
      "type": "function"
    },
    {
      "inputs": [
        {
          "internalType": "address",
          "name": "openAvatarGen0Assets_",
          "type": "address"
        }
      ],
      "name": "initialize",
      "outputs": [],
      "stateMutability": "nonpayable",
      "type": "function"
    },
    {
      "inputs": [],
      "name": "isInitialized",
      "outputs": [
        {
          "internalType": "bool",
          "name": "",
          "type": "bool"
        }
      ],
      "stateMutability": "view",
      "type": "function"
    },
    {
      "inputs": [],
      "name": "openAvatar",
      "outputs": [
        {
          "internalType": "bool",
          "name": "",
          "type": "bool"
        }
      ],
      "stateMutability": "pure",
      "type": "function"
    },
    {
      "inputs": [],
      "name": "openAvatarGen0AssetsRead",
      "outputs": [
        {
          "internalType": "contract IOpenAvatarGen0AssetsRead",
          "name": "",
          "type": "address"
        }
      ],
      "stateMutability": "view",
      "type": "function"
    },
    {
      "inputs": [],
      "name": "openAvatarGeneration",
      "outputs": [
        {
          "internalType": "uint256",
          "name": "",
          "type": "uint256"
        }
      ],
      "stateMutability": "pure",
      "type": "function"
    },
    {
      "inputs": [],
      "name": "owner",
      "outputs": [
        {
          "internalType": "address",
          "name": "",
          "type": "address"
        }
      ],
      "stateMutability": "view",
      "type": "function"
    },
    {
      "inputs": [
        {
          "internalType": "bytes32",
          "name": "dna",
          "type": "bytes32"
        }
      ],
      "name": "renderBase64PNG",
      "outputs": [
        {
          "internalType": "bytes",
          "name": "",
          "type": "bytes"
        }
      ],
      "stateMutability": "view",
      "type": "function"
    },
    {
      "inputs": [
        {
          "internalType": "bytes32",
          "name": "dna",
          "type": "bytes32"
        }
      ],
      "name": "renderBase64SVG",
      "outputs": [
        {
          "internalType": "bytes",
          "name": "",
          "type": "bytes"
        }
      ],
      "stateMutability": "view",
      "type": "function"
    },
    {
      "inputs": [
        {
          "internalType": "bytes32",
          "name": "dna",
          "type": "bytes32"
        }
      ],
      "name": "renderHex",
      "outputs": [
        {
          "internalType": "bytes",
          "name": "",
          "type": "bytes"
        }
      ],
      "stateMutability": "view",
      "type": "function"
    },
    {
      "inputs": [
        {
          "internalType": "bytes32",
          "name": "dna",
          "type": "bytes32"
        }
      ],
      "name": "renderPNG",
      "outputs": [
        {
          "internalType": "bytes",
          "name": "",
          "type": "bytes"
        }
      ],
      "stateMutability": "view",
      "type": "function"
    },
    {
      "inputs": [
        {
          "internalType": "bytes32",
          "name": "dna",
          "type": "bytes32"
        }
      ],
      "name": "renderSVG",
      "outputs": [
        {
          "internalType": "bytes",
          "name": "",
          "type": "bytes"
        }
      ],
      "stateMutability": "view",
      "type": "function"
    },
    {
      "inputs": [
        {
          "internalType": "bytes32",
          "name": "dna",
          "type": "bytes32"
        }
      ],
      "name": "renderURI",
      "outputs": [
        {
          "internalType": "string",
          "name": "",
          "type": "string"
        }
      ],
      "stateMutability": "view",
      "type": "function"
    },
    {
      "inputs": [],
      "name": "renounceOwnership",
      "outputs": [],
      "stateMutability": "nonpayable",
      "type": "function"
    },
    {
      "inputs": [
        {
          "internalType": "uint8",
          "name": "newCanvasId",
          "type": "uint8"
        }
      ],
      "name": "setCanvasId",
      "outputs": [],
      "stateMutability": "nonpayable",
      "type": "function"
    },
    {
      "inputs": [
        {
          "internalType": "contract ENS",
          "name": "ens",
          "type": "address"
        },
        {
          "internalType": "string",
          "name": "name",
          "type": "string"
        }
      ],
      "name": "setReverseENS",
      "outputs": [
        {
          "internalType": "bytes32",
          "name": "",
          "type": "bytes32"
        }
      ],
      "stateMutability": "nonpayable",
      "type": "function"
    },
    {
      "inputs": [
        {
          "internalType": "bytes4",
          "name": "interfaceId",
          "type": "bytes4"
        }
      ],
      "name": "supportsInterface",
      "outputs": [
        {
          "internalType": "bool",
          "name": "",
          "type": "bool"
        }
      ],
      "stateMutability": "pure",
      "type": "function"
    },
    {
      "inputs": [
        {
          "internalType": "address",
          "name": "newOwner",
          "type": "address"
        }
      ],
      "name": "transferOwnership",
      "outputs": [],
      "stateMutability": "nonpayable",
      "type": "function"
    },
    {
      "inputs": [
        {
          "internalType": "uint256",
          "name": "amount",
          "type": "uint256"
        }
      ],
      "name": "withdraw",
      "outputs": [],
      "stateMutability": "nonpayable",
      "type": "function"
    },
    {
      "stateMutability": "payable",
      "type": "receive"
    }
  ],
  "bytecode": "0x6080604090808252346200019657620000329062004bcd80380380916200002782856200019a565b8339810190620001d2565b60ff195f54165f556200004533620001f3565b8151638da5cb5b60e01b8152906020906001600160a01b039082908490600490829085165afa9283156200018c575f9362000156575b50805f5460081c16908316908181036200009f575b845161497e90816200024f8239f35b3303620001145715620000c25750620000b890620001f3565b5f80808062000090565b60849083519062461bcd60e51b82526004820152602660248201527f4f776e61626c653a206e6577206f776e657220697320746865207a65726f206160448201526564647265737360d01b6064820152fd5b60648285519062461bcd60e51b825280600483015260248201527f4f776e61626c653a2063616c6c6572206973206e6f7420746865206f776e65726044820152fd5b6200017c919350823d841162000184575b6200017381836200019a565b810190620001d2565b915f6200007b565b503d62000167565b84513d5f823e3d90fd5b5f80fd5b601f909101601f19168101906001600160401b03821190821017620001be57604052565b634e487b7160e01b5f52604160045260245ffd5b908160209103126200019657516001600160a01b0381168103620001965790565b5f8054610100600160a81b03198116600884811b610100600160a81b03169190911783556001600160a01b039384169391901c16907f8be0079c531659141344cd1fd0a4f28419497f9722a3daafe3b4186f6b6457e09080a356fe60806040526004361015610018575b361561001657005b005b5f3560e01c806301ffc9a71461038a5780630297eaea1461038557806305374d321461038057806306151bfd1461037b57806307a8803b1461037657806309aac47a146103715780630bbebfb31461036c5780631a70714c146103675780632a55f61b146102905780632e1a7d4d146103625780632ef2ba911461035d5780632f7ec32d14610358578063310c47f914610353578063392e53cd1461034e578063397ebb11146103495780633ac58b191461029057806340b6e7d014610344578063513181ca146102ef5780635169d0471461033f578063557954ea1461033a5780635f6a070a146102bd578063602129ec146102b35780636274f88b14610335578063655ccd8e14610330578063715018a61461032b578063777d178e146103265780637a58aa72146103215780637b65147c1461031c5780637f6ceac2146103175780638007c940146103125780638107bc121461030d5780638517d24814610308578063868b507a146103035780638b3a24f5146102fe5780638da5cb5b146102f9578063a591856e146102f4578063aaabb435146102ef578063b13a335a146102ea578063b45dddb5146102e5578063b4f82909146102e0578063b68cf6f914610290578063b93e4881146102db578063b9df49a3146102d6578063c3b37230146102d1578063c4d66de8146102cc578063c7d3086d146102c7578063cfe89f32146102c2578063d031f39f146102bd578063d594088d146102b8578063d8fda349146102b3578063e34a817e146102ae578063f056a323146102a9578063f06ef8fb146102a4578063f0f3c8461461029f578063f2fde38b1461029a578063f9250376146102955763fdf02ac80361000e575b610e43565b612545565b6123ef565b6123b6565b61236c565b6122c6565b61225c565b611196565b6121d9565b61115d565b6121c2565b612004565b611d5d565b611d05565b611ccc565b611c03565b611ad3565b611a9a565b611a61565b61108d565b611a44565b611993565b6118a1565b6117c0565b611787565b61174e565b61159f565b611409565b6113d0565b61133e565b6112e7565b611245565b61120c565b6111d3565b611120565b6110de565b611041565b611008565b610fb5565b610f7c565b610f65565b610f2c565b610e7b565b610e0a565b610d4d565b610d2d565b610c19565b610b72565b61065f565b6105ae565b6103bd565b7fffffffff000000000000000000000000000000000000000000000000000000008116036103b957565b5f80fd5b346103b95760207ffffffffffffffffffffffffffffffffffffffffffffffffffffffffffffffffc3601126103b9576104857fffffffff0000000000000000000000000000000000000000000000000000000060043561041c8161038f565b167f01ffc9a7000000000000000000000000000000000000000000000000000000008114908115610584575b811561055a575b8115610530575b8115610506575b81156104dd575b81156104b3575b8115610489575b5060405190151581529081906020820190565b0390f35b7f2638c94b000000000000000000000000000000000000000000000000000000009150145f610472565b7f13247985000000000000000000000000000000000000000000000000000000008114915061046b565b7ea663b10000000000000000000000000000000000000000000000000000000081149150610464565b7fb93e4881000000000000000000000000000000000000000000000000000000008114915061045d565b7f86953eb40000000000000000000000000000000000000000000000000000000081149150610456565b7f7b65147c000000000000000000000000000000000000000000000000000000008114915061044f565b7ffdf02ac80000000000000000000000000000000000000000000000000000000081149150610448565b346103b9575f7ffffffffffffffffffffffffffffffffffffffffffffffffffffffffffffffffc3601126103b957602060405160788152f35b5f5b8381106105f85750505f910152565b81810151838201526020016105e9565b907fffffffffffffffffffffffffffffffffffffffffffffffffffffffffffffffe0601f602093610644815180928187528780880191016105e7565b0116010190565b90602061065c928181520190610608565b90565b346103b9576020807ffffffffffffffffffffffffffffffffffffffffffffffffffffffffffffffffc3601126103b9575f5460ff166106a060043582614310565b916106dc6106c360015473ffffffffffffffffffffffffffffffffffffffff1690565b73ffffffffffffffffffffffffffffffffffffffff1690565b6040517fefc0c76900000000000000000000000000000000000000000000000000000000815260ff841660048201529093908281602481885afa90811561081a576107679484915f93610851575b506040517f47dd16bb00000000000000000000000000000000000000000000000000000000815260ff909116600482015294859081906024820190565b0381885afa93841561081a575f9461081f575b508260049495604051958680927f06e2423f0000000000000000000000000000000000000000000000000000000082525afa91821561081a57610485956107da956107d5955f956107e6575b505060ff809116921690612e37565b6128e1565b6040519182918261064b565b60ff92955082918161080c92903d10610813575b61080481836108f6565b810190613654565b94916107c6565b503d6107fa565b612614565b600494506108438491823d841161084a575b61083b81836108f6565b810190613669565b945061077a565b503d610831565b610869919350823d841161084a5761083b81836108f6565b915f61072a565b7f4e487b71000000000000000000000000000000000000000000000000000000005f52604160045260245ffd5b60a0810190811067ffffffffffffffff8211176108b957604052565b610870565b6060810190811067ffffffffffffffff8211176108b957604052565b6040810190811067ffffffffffffffff8211176108b957604052565b90601f7fffffffffffffffffffffffffffffffffffffffffffffffffffffffffffffffe0910116810190811067ffffffffffffffff8211176108b957604052565b60405190610944826108be565b565b67ffffffffffffffff81116108b957601f017fffffffffffffffffffffffffffffffffffffffffffffffffffffffffffffffe01660200190565b81601f820112156103b95780359061099782610946565b926109a560405194856108f6565b828452602083830101116103b957815f926020809301838601378301015290565b60ff8116036103b957565b60443590610944826109c6565b7fffffffffffffffffffffffffffffffffffffffffffffffffffffffffffffffbc60a09101126103b95760405190610a158261089d565b81604435610a22816109c6565b8152606435610a30816109c6565b6020820152608435610a41816109c6565b604082015260a435610a52816109c6565b6060820152608060c43591610a66836109c6565b0152565b7fffffffffffffffffffffffffffffffffffffffffffffffffffffffffffffff9c60a09101126103b95760405190610aa18261089d565b81606435610aae816109c6565b8152608435610abc816109c6565b602082015260a435610acd816109c6565b604082015260c435610ade816109c6565b6060820152608060e43591610a66836109c6565b67ffffffffffffffff81116108b95760051b60200190565b81601f820112156103b957803591610b2183610af2565b92610b2f60405194856108f6565b808452602092838086019260051b8201019283116103b9578301905b828210610b59575050505090565b8380918335610b678161038f565b815201910190610b4b565b346103b9576101207ffffffffffffffffffffffffffffffffffffffffffffffffffffffffffffffffc3601126103b95767ffffffffffffffff6004358181116103b957610bc3903690600401610980565b60243591610bd0836109c6565b610bd9366109de565b9260e4358281116103b957610bf2903690600401610980565b610104359283116103b95761048594610c126107da943690600401610b0a565b9285613e3d565b346103b95760a07ffffffffffffffffffffffffffffffffffffffffffffffffffffffffffffffffc3601126103b95760043567ffffffffffffffff81116103b957610c6b610485913690600401610980565b610ca6602435610c7a816109c6565b604435610c86816109c6565b60643590610c93826109c6565b60843592610ca0846109c6565b85613a5c565b604051918291602083526020830190610608565b801515036103b957565b60c07ffffffffffffffffffffffffffffffffffffffffffffffffffffffffffffffffc8201126103b9576004359067ffffffffffffffff82116103b957610d0d91600401610980565b906024359060443590606435610d2281610cba565b906084359060a43590565b346103b957610485610ca6610d4136610cc4565b94939093929192612a52565b346103b9576101407ffffffffffffffffffffffffffffffffffffffffffffffffffffffffffffffffc3601126103b95767ffffffffffffffff6004358181116103b957610d9e903690600401610980565b6024358281116103b957610db6903690600401610980565b91610dbf6109d1565b92610dc936610a6a565b610104358381116103b957610de2903690600401610980565b90610124359384116103b95761048595610e036107da953690600401610b0a565b9386613eb1565b346103b9575f7ffffffffffffffffffffffffffffffffffffffffffffffffffffffffffffffffc3601126103b957602060405160828152f35b346103b9575f7ffffffffffffffffffffffffffffffffffffffffffffffffffffffffffffffffc3601126103b95760206040515f8152f35b346103b95760207ffffffffffffffffffffffffffffffffffffffffffffffffffffffffffffffffc3601126103b9575f808080600435610eb961257e565b818115610ecb575b3390f11561081a57005b506108fc610ec1565b604051906020820182811067ffffffffffffffff8211176108b9576040525f8252565b60405190610f04826108da565b600c82527b49454e44ae42608200000000000000000000000000000000000000006020830152565b346103b9575f7ffffffffffffffffffffffffffffffffffffffffffffffffffffffffffffffffc3601126103b957610485610ca6610ef7565b346103b957610485610ca66107d5610d4136610cc4565b346103b9575f7ffffffffffffffffffffffffffffffffffffffffffffffffffffffffffffffffc3601126103b957602060405160288152f35b346103b9575f7ffffffffffffffffffffffffffffffffffffffffffffffffffffffffffffffffc3601126103b957602073ffffffffffffffffffffffffffffffffffffffff600154161515604051908152f35b346103b9575f7ffffffffffffffffffffffffffffffffffffffffffffffffffffffffffffffffc3601126103b957602060405160468152f35b346103b95760607ffffffffffffffffffffffffffffffffffffffffffffffffffffffffffffffffc3601126103b957610485610ca660443561108281610cba565b602435600435613049565b346103b9575f7ffffffffffffffffffffffffffffffffffffffffffffffffffffffffffffffffc3601126103b957602073ffffffffffffffffffffffffffffffffffffffff60015416604051908152f35b346103b95760207ffffffffffffffffffffffffffffffffffffffffffffffffffffffffffffffffc3601126103b957610485610ca660043560ff5f5416614310565b346103b95760207ffffffffffffffffffffffffffffffffffffffffffffffffffffffffffffffffc3601126103b957610485610ca66004356147c6565b346103b9575f7ffffffffffffffffffffffffffffffffffffffffffffffffffffffffffffffffc3601126103b9576020604051600a8152f35b346103b9575f7ffffffffffffffffffffffffffffffffffffffffffffffffffffffffffffffffc3601126103b957602060ff5f5416604051908152f35b346103b9575f7ffffffffffffffffffffffffffffffffffffffffffffffffffffffffffffffffc3601126103b957602060405160328152f35b346103b9575f7ffffffffffffffffffffffffffffffffffffffffffffffffffffffffffffffffc3601126103b9576020604051608c8152f35b346103b9575f807ffffffffffffffffffffffffffffffffffffffffffffffffffffffffffffffffc3601126112e45761127c61257e565b8073ffffffffffffffffffffffffffffffffffffffff81547fffffffffffffffffffffff0000000000000000000000000000000000000000ff8116835560081c167f8be0079c531659141344cd1fd0a4f28419497f9722a3daafe3b4186f6b6457e08280a380f35b80fd5b346103b9575f7ffffffffffffffffffffffffffffffffffffffffffffffffffffffffffffffffc3601126103b957602060405160148152f35b73ffffffffffffffffffffffffffffffffffffffff8116036103b957565b346103b95760407ffffffffffffffffffffffffffffffffffffffffffffffffffffffffffffffffc3601126103b95760043561137981611320565b60243567ffffffffffffffff8082116103b957366023830112156103b95781600401359081116103b95736602482840101116103b9576104859260246113c093019061262e565b6040519081529081906020820190565b346103b9575f7ffffffffffffffffffffffffffffffffffffffffffffffffffffffffffffffffc3601126103b957602060405160018152f35b346103b9576020807ffffffffffffffffffffffffffffffffffffffffffffffffffffffffffffffffc3601126103b9575f5460ff169061144b60043583614310565b9161146e6106c360015473ffffffffffffffffffffffffffffffffffffffff1690565b6040517fefc0c76900000000000000000000000000000000000000000000000000000000815260ff8316600482015290938382602481885afa91821561081a576114f89385915f94611580575b506040517f47dd16bb00000000000000000000000000000000000000000000000000000000815260ff909116600482015293849081906024820190565b0381885afa92831561081a5760049585915f95611561575b50604051968780927f06e2423f0000000000000000000000000000000000000000000000000000000082525afa92831561081a57610485956107da955f956107e657505060ff809116921690612e37565b611579919550823d841161084a5761083b81836108f6565b935f611510565b611598919450823d841161084a5761083b81836108f6565b925f6114bb565b346103b95760407ffffffffffffffffffffffffffffffffffffffffffffffffffffffffffffffffc3601126103b9576004356115da81611320565b602435906115e782611320565b6115ef61257e565b6040517f02571be30000000000000000000000000000000000000000000000000000000081527f91d1777781884d03a6757a803996e38de2a42967fb37eeaca72729271025a9e260048201526020929083818060248101038173ffffffffffffffffffffffffffffffffffffffff8097165afa801561081a5784926116c9925f9261171f575b505f6040519586809581947f1e83409a0000000000000000000000000000000000000000000000000000000083526004830191909173ffffffffffffffffffffffffffffffffffffffff6020820193169052565b0393165af190811561081a57610485925f926116f2575b50506040519081529081906020820190565b6117119250803d10611718575b61170981836108f6565b81019061261f565b5f806116e0565b503d6116ff565b611740919250843d8611611747575b61173881836108f6565b8101906125ff565b905f611675565b503d61172e565b346103b9575f7ffffffffffffffffffffffffffffffffffffffffffffffffffffffffffffffffc3601126103b9576020604051603c8152f35b346103b9575f7ffffffffffffffffffffffffffffffffffffffffffffffffffffffffffffffffc3601126103b9576020604051605a8152f35b346103b9575f7ffffffffffffffffffffffffffffffffffffffffffffffffffffffffffffffffc3601126103b957602060405160508152f35b81601f820112156103b95780359061181082610af2565b92604090611820825195866108f6565b83855260209182860191836060809702860101948186116103b9578401925b858410611850575050505050505090565b86848303126103b9578487918451611867816108be565b8635611872816109c6565b815282870135611881816109c6565b8382015285870135611892816109c6565b8682015281520193019261183f565b346103b95760407ffffffffffffffffffffffffffffffffffffffffffffffffffffffffffffffffc3601126103b9576004356118dc816109c6565b6024359067ffffffffffffffff82116103b9576118ff60249236906004016117f9565b602073ffffffffffffffffffffffffffffffffffffffff60015416604051948580927fa749045200000000000000000000000000000000000000000000000000000000825260ff871660048301525afa90811561081a5761196e6107da92610485955f91611975575b50612892565b9283613787565b61198d915060203d81116117185761170981836108f6565b5f611968565b346103b9575f7ffffffffffffffffffffffffffffffffffffffffffffffffffffffffffffffffc3601126103b957602073ffffffffffffffffffffffffffffffffffffffff5f5460081c16604051908152f35b60807ffffffffffffffffffffffffffffffffffffffffffffffffffffffffffffffffc8201126103b9576004359067ffffffffffffffff82116103b957611a2f91600401610980565b90602435906044359060643561065c81610cba565b346103b957610485610ca6611a58366119e6565b92919091612e37565b346103b9575f7ffffffffffffffffffffffffffffffffffffffffffffffffffffffffffffffffc3601126103b9576020604051601e8152f35b346103b9575f7ffffffffffffffffffffffffffffffffffffffffffffffffffffffffffffffffc3601126103b9576020604051606e8152f35b346103b95760207ffffffffffffffffffffffffffffffffffffffffffffffffffffffffffffffffc3601126103b957600435611b0e816109c6565b611b1661257e565b6001546040517f21ee9ce100000000000000000000000000000000000000000000000000000000815260ff83166004820152906020908290602490829073ffffffffffffffffffffffffffffffffffffffff165afa90811561081a575f91611be5575b5015611baf576100169060ff167fffffffffffffffffffffffffffffffffffffffffffffffffffffffffffffff005f5416175f55565b6040517f9cc6493400000000000000000000000000000000000000000000000000000000815260ff919091166004820152602490fd5b611bfd915060203d81116108135761080481836108f6565b5f611b79565b346103b95760207ffffffffffffffffffffffffffffffffffffffffffffffffffffffffffffffffc3601126103b957610485611c406004356147c6565b610ca6603a60405180937f646174613a696d6167652f7376672b786d6c3b6261736536342c0000000000006020830152611c8381518092602086860191016105e7565b810103601a8101845201826108f6565b60405190611ca0826108da565b600882527f89504e470d0a1a0a0000000000000000000000000000000000000000000000006020830152565b346103b9575f7ffffffffffffffffffffffffffffffffffffffffffffffffffffffffffffffffc3601126103b957610485610ca6611c93565b346103b9575f7ffffffffffffffffffffffffffffffffffffffffffffffffffffffffffffffffc3601126103b95760206040517fff000000000000000000000000000000000000000000000000000000000000008152f35b346103b9576020807ffffffffffffffffffffffffffffffffffffffffffffffffffffffffffffffffc3601126103b9576004803591611d9b83611320565b611da361257e565b73ffffffffffffffffffffffffffffffffffffffff80611ddb6106c360015473ffffffffffffffffffffffffffffffffffffffff1690565b16611fdb578316926040517f01ffc9a7000000000000000000000000000000000000000000000000000000008152828180611e3c878201907f67bf31d100000000000000000000000000000000000000000000000000000000602083019252565b0381885afa90811561081a575f91611fbe575b5015611f4c5750611e9c829373ffffffffffffffffffffffffffffffffffffffff167fffffffffffffffffffffffff00000000000000000000000000000000000000006001541617600155565b80611ebf6106c360015473ffffffffffffffffffffffffffffffffffffffff1690565b604051938480927f0eb589c20000000000000000000000000000000000000000000000000000000082525afa801561081a57839260ff925f92611f2f575b50501603611f0757005b6040517fe5a0da2d000000000000000000000000000000000000000000000000000000008152fd5b611f459250803d1061084a5761083b81836108f6565b5f80611efd565b604080517fe4786fd500000000000000000000000000000000000000000000000000000000815273ffffffffffffffffffffffffffffffffffffffff9092168285019081527f67bf31d10000000000000000000000000000000000000000000000000000000060208201528291010390fd5b611fd59150833d85116108135761080481836108f6565b5f611e4f565b826040517f0dc149f0000000000000000000000000000000000000000000000000000000008152fd5b346103b9576020807ffffffffffffffffffffffffffffffffffffffffffffffffffffffffffffffffc3601126103b9576120566106c360015473ffffffffffffffffffffffffffffffffffffffff1690565b906120625f5460ff1690565b6040517fefc0c76900000000000000000000000000000000000000000000000000000000815260ff821660048201529092908281602481855afa801561081a5760ff915f916121a5575b506040517f47dd16bb00000000000000000000000000000000000000000000000000000000815260ff86166004820152949116908385602481865afa94851561081a5761210b60ff60049787935f91612188575b501692873590614310565b93604051968780927f06e2423f0000000000000000000000000000000000000000000000000000000082525afa90811561081a57610485956107da955f93612169575b50506121598361283e565b926121638261283e565b94612a52565b612180929350803d106108135761080481836108f6565b905f8061214e565b61219f9150843d861161084a5761083b81836108f6565b5f612100565b6121bc9150843d861161084a5761083b81836108f6565b5f6120ac565b346103b957610485610ca66107d5611a58366119e6565b346103b95760607ffffffffffffffffffffffffffffffffffffffffffffffffffffffffffffffffc3601126103b95767ffffffffffffffff6004358181116103b957612229903690600401610980565b60243591612236836109c6565b6044359081116103b95761048592612255610ca69236906004016117f9565b9083613787565b346103b95760607ffffffffffffffffffffffffffffffffffffffffffffffffffffffffffffffffc3601126103b95760043567ffffffffffffffff81116103b957610ca66122b1610485923690600401610980565b6024356122bd816109c6565b604435916143e3565b346103b95760c07ffffffffffffffffffffffffffffffffffffffffffffffffffffffffffffffffc3601126103b95767ffffffffffffffff6004358181116103b957612316903690600401610980565b6024359182116103b9576107da612334610485933690600401610980565b604435612340816109c6565b60643561234c816109c6565b60843591612359836109c6565b60a43593612366856109c6565b86613c5b565b346103b95760407ffffffffffffffffffffffffffffffffffffffffffffffffffffffffffffffffc3601126103b957610485610ca66004356123ad816109c6565b60243590614310565b346103b9575f7ffffffffffffffffffffffffffffffffffffffffffffffffffffffffffffffffc3601126103b957602060405160648152f35b346103b95760207ffffffffffffffffffffffffffffffffffffffffffffffffffffffffffffffffc3601126103b95760043561242a81611320565b61243261257e565b73ffffffffffffffffffffffffffffffffffffffff8082169081156124c1575f9274ffffffffffffffffffffffffffffffffffffffff0084549160081b167fffffffffffffffffffffff0000000000000000000000000000000000000000ff821617845560081c167f8be0079c531659141344cd1fd0a4f28419497f9722a3daafe3b4186f6b6457e08380a380f35b60846040517f08c379a000000000000000000000000000000000000000000000000000000000815260206004820152602660248201527f4f776e61626c653a206e6577206f776e657220697320746865207a65726f206160448201527f64647265737300000000000000000000000000000000000000000000000000006064820152fd5b346103b9575f7ffffffffffffffffffffffffffffffffffffffffffffffffffffffffffffffffc3601126103b957602060405160968152f35b73ffffffffffffffffffffffffffffffffffffffff5f5460081c1633036125a157565b60646040517f08c379a000000000000000000000000000000000000000000000000000000000815260206004820152602060248201527f4f776e61626c653a2063616c6c6572206973206e6f7420746865206f776e65726044820152fd5b908160209103126103b9575161065c81611320565b6040513d5f823e3d90fd5b908160209103126103b9575190565b909161263861257e565b604051907f02571be300000000000000000000000000000000000000000000000000000000825260209384838061269660048201907f91d1777781884d03a6757a803996e38de2a42967fb37eeaca72729271025a9e2602083019252565b038173ffffffffffffffffffffffffffffffffffffffff8098165afa90811561081a576126fe9486945f9361272b575b505f906040518097819682957fc47f00270000000000000000000000000000000000000000000000000000000084526004840161274c565b0393165af191821561081a575f9261271557505090565b61065c9250803d106117185761170981836108f6565b5f91935061274590863d88116117475761173881836108f6565b92906126c6565b90601f836040947fffffffffffffffffffffffffffffffffffffffffffffffffffffffffffffffe09360208652816020870152868601375f8582860101520116010190565b6040519061279e826108be565b604082527f6768696a6b6c6d6e6f707172737475767778797a303132333435363738392b2f6040837f4142434445464748494a4b4c4d4e4f505152535455565758595a61626364656660208201520152565b7f4e487b71000000000000000000000000000000000000000000000000000000005f52601160045260245ffd5b906002820180921161282b57565b6127f0565b906020820180921161282b57565b9081600a0291600a83040361282b57565b908160021b917f3fffffffffffffffffffffffffffffffffffffffffffffffffffffffffffffff81160361282b57565b8181029291811591840414171561282b57565b9061289c82610946565b6128a960405191826108f6565b8281527fffffffffffffffffffffffffffffffffffffffffffffffffffffffffffffffe06128d78294610946565b0190602036910137565b805115612a32576128f0612791565b61290c612907612900845161281d565b6003900490565b61284f565b9161291e61291984612830565b612892565b92835280815182019060208501935b8282106129e0575050506003905106806001146129975760021461294f575090565b7fffffffffffffffffffffffffffffffffffffffffffffffffffffffffffffffff7f3d0000000000000000000000000000000000000000000000000000000000000091015290565b507ffffffffffffffffffffffffffffffffffffffffffffffffffffffffffffffffe7f3d3d00000000000000000000000000000000000000000000000000000000000091015290565b9091936004906003809401938451600190603f9082828260121c16880101518553828282600c1c16880101518386015382828260061c168801015160028601531685010151908201530193919061292d565b5061065c610ed4565b90612a4e602092828151948592016105e7565b0190565b93612be9612bef612b6b97612be9612b6b612a90612a8a612a846107d560709c612c8d9c61065c9f9c612c649d612e37565b97612cb9565b93612cb9565b92612be9612b9a612b946040519e8f9d8e7f3c73766720786d6c6e733d22687474703a2f2f7777772e77332e6f72672f323060208201527f30302f737667222076696577426f783d223020302000000000000000000000006040820152865190612b01826055830160208b016105e7565b017f20000000000000000000000000000000000000000000000000000000000000006055820152895190612b3d828c60206056850191016105e7565b017f223e0a093c666f726569676e4f626a6563742077696474683d2200000000000060568201520185612a3b565b7f22206865696768743d22000000000000000000000000000000000000000000008152600a0190565b86612a3b565b7f223e0a09093c696d6720786d6c6e733d22687474703a2f2f7777772e77332e6f81527f72672f313939392f7868746d6c222077696474683d2200000000000000000000602082015260360190565b90612a3b565b7f22207374796c653d22696d6167652d72656e646572696e673a20706978656c6181527f7465643b22207372633d22646174613a696d6167652f706e673b62617365363460208201527f2c00000000000000000000000000000000000000000000000000000000000000604082015260410190565b7f222f3e0a093c2f666f726569676e4f626a6563743e0a3c2f7376673e000000008152601c0190565b037fffffffffffffffffffffffffffffffffffffffffffffffffffffffffffffffe081018352826108f6565b805f917a184f03e93ff9f4daa797ed6e38ed64bf6a1f01000000000000000080821015612e18575b506d04ee2d6d415b85acef810000000080831015612e09575b50662386f26fc1000080831015612dfa575b506305f5e10080831015612deb575b5061271080831015612ddc575b506064821015612dcc575b600a80921015612dc2575b600190816021612d4f828701612892565b95860101905b612d61575b5050505090565b7fffffffffffffffffffffffffffffffffffffffffffffffffffffffffffffffff849101917f30313233343536373839616263646566000000000000000000000000000000008282061a835304918215612dbd57919082612d55565b612d5a565b9160010191612d3e565b9190606460029104910191612d33565b6004919392049101915f612d28565b6008919392049101915f612d1b565b6010919392049101915f612d0c565b6020919392049101915f612cfa565b60409350810491505f612ce1565b9161065c9593916107d59593612a52565b9092918215612ef95760045b818560ff85519316020203612e9b57612e72838286612e6c61065c97612c8d96612be99a613049565b9561333e565b91612be9612e7e611c93565b93612be9612e8a610ef7565b936040519889976020890190612a3b565b60646040517f08c379a000000000000000000000000000000000000000000000000000000000815260206004820152601960248201527f496e76616c696420696d6167652064617461206c656e677468000000000000006044820152fd5b6003612e43565b60405190612f0d826108da565b601982527c0d494844520000000000000000080200000000000000000000000000006020830152565b7f4e487b71000000000000000000000000000000000000000000000000000000005f52603260045260245ffd5b805160081015612f735760280190565b612f36565b805160091015612f735760290190565b8051600a1015612f7357602a0190565b8051600b1015612f7357602b0190565b8051600c1015612f7357602c0190565b8051600d1015612f7357602d0190565b8051600e1015612f7357602e0190565b8051600f1015612f7357602f0190565b805160111015612f735760310190565b805160151015612f735760350190565b805160161015612f735760360190565b805160171015612f735760370190565b805160181015612f735760380190565b908151811015612f73570160200190565b90613052612f00565b927fff000000000000000000000000000000000000000000000000000000000000008092815f95818160e01b16871a61308a89612f63565b53818160e81b16871a61309c89612f78565b53818160f01b16871a6130ae89612f88565b5360f81b16851a6130be87612f98565b53818160e01b16851a6130d087612fa8565b53818160e81b16851a6130e287612fb8565b53818160f01b16851a6130f487612fc8565b5360f81b16831a61310485612fd8565b531561316957600661311584612fe8565b535b613120836131a7565b818160e01b16831a61313185612ff8565b53818160e81b16831a61314385613008565b53818160f01b16831a61315585613018565b5360f81b16901a61316582613028565b5390565b600261317484612fe8565b53613117565b7fffffffffffffffffffffffffffffffffffffffffffffffffffffffffffffffff811461282b5760010190565b63ffffffff6004915b601583106131c5575063ffffffff9150191690565b9061320b6132056131ff6131d98686613038565b517fff000000000000000000000000000000000000000000000000000000000000001690565b60f81c90565b60ff1690565b18915f5b6008811061322857506132219061317a565b91906131b0565b9261324d90600190818116820361325257901c637fffffff1663edb88320189361317a565b61320f565b637fffffff911c169361317a565b91909163ffffffff905f80915b858310613282575050501963ffffffff169150565b9091926132986132056131ff6131d98786613038565b1892825b600881106132b557506132ae9061317a565b919061326d565b936132da9060019081811682036132df57901c637fffffff1663edb88320189461317a565b61329c565b637fffffff911c169461317a565b91600893927fffffffff00000000000000000000000000000000000000000000000000000000809360e01b16815261332f8251809360206004850191016105e7565b019160e01b1660048201520190565b92156134d35760ff60045b16026001918282019361335d828602612892565b945f5b8381106134825750505050505061065c61337b825183613600565b916133d26133876134dc565b938251927fff00000000000000000000000000000000000000000000000000000000000000808560f81b1694601e1a60f81b9660405197889683821916938119169260208901613515565b036134037fffffffffffffffffffffffffffffffffffffffffffffffffffffffffffffffe0918281018552846108f6565b6040517f494441540000000000000000000000000000000000000000000000000000000060208201529261344a8461343e6024820184612a3b565b038381018652856108f6565b61347661346661345b865187613260565b925163ffffffff1690565b91604051958693602085016132ed565b039081018352826108f6565b80869183025f613492828b613038565b535f5b8781106134a457505001613360565b6134b86131d9828a86979596020188613038565b5f1a6134c883838601018c613038565b530190879291613495565b60ff6003613349565b604051906134e9826108da565b600182527f01000000000000000000000000000000000000000000000000000000000000006020830152565b917fffffffff000000000000000000000000000000000000000000000000000000009591600a98979594937f780000000000000000000000000000000000000000000000000000000000000081527f0100000000000000000000000000000000000000000000000000000000000000600182015261359d8251809360206002850191016105e7565b01937fff0000000000000000000000000000000000000000000000000000000000000080948180941660028801521660038601521660048401521660058201526135f18251809360206006850191016105e7565b019160e01b1660068201520190565b90600191825f9283925b818410613622575050505060101b63ffff0000161790565b90918093949561fff1908163ffffffff809261363e8a88613038565b5160f81c0116068098011606940192919061360a565b908160209103126103b9575161065c81610cba565b908160209103126103b9575161065c816109c6565b805115612f735760200190565b805160011015612f735760400190565b805160021015612f735760600190565b805160031015612f735760800190565b805160041015612f735760a00190565b805160051015612f735760c00190565b805160061015612f735760e00190565b805160071015612f73576101000190565b805160081015612f73576101200190565b805160091015612f73576101400190565b8051600a1015612f73576101600190565b8051600b1015612f73576101800190565b8051600c1015612f73576101a00190565b8051600d1015612f73576101c00190565b8051600e1015612f73576101e00190565b8051821015612f735760209160051b010190565b9190918051926001936137b16106c3865473ffffffffffffffffffffffffffffffffffffffff1690565b604080517fa749045200000000000000000000000000000000000000000000000000000000815260ff85166004820152909360209390928490839060249082905afa91821561081a575f9261389b575b500361385b578451945f5b86811061381d575050505050505050565b8061385561382c8a9385613773565b51805160ff169061384d896138448a84015160ff1690565b92015160ff1690565b91878b613a5c565b0161380c565b835192517fec3ad10f00000000000000000000000000000000000000000000000000000000815260ff919091166004820152602481019290925250604490fd5b6138b3919250843d86116117185761170981836108f6565b905f613801565b8091039060c082126103b95760a07fffffffffffffffffffffffffffffffffffffffffffffffffffffffffffffffe0604051936138f6856108da565b835161390181610cba565b855201126103b95760a0604051916139188361089d565b6020810151613926816109c6565b83526040810151613936816109c6565b60208401526060810151613949816109c6565b6040840152608081015161395c816109c6565b6060840152015161396c816109c6565b6080820152602082015290565b6020818303126103b95780519067ffffffffffffffff82116103b9570181601f820112156103b95780516139ac81610946565b926139ba60405194856108f6565b818452602082840101116103b95761065c91602080850191016105e7565b60209081818403126103b95780519067ffffffffffffffff82116103b957019180601f840112156103b9578251613a0e81610af2565b93613a1c60405195866108f6565b818552838086019260051b8201019283116103b9578301905b828210613a43575050505090565b8380918351613a518161038f565b815201910190613a35565b9093929193613a836106c360015473ffffffffffffffffffffffffffffffffffffffff1690565b6040517f1955687a00000000000000000000000000000000000000000000000000000000815260ff8381166004830152878116602483015285166044820152909560c0826064818a5afa91821561081a575f92613c2b575b508151613aec575b50505050505050565b6040517f184af13600000000000000000000000000000000000000000000000000000000815260ff84811660048301529182166024820152941660448501525f84606481895afa93841561081a575f94613c08575b508351613b4f575b80613ae3565b613bb09460205f920196613b69608089510160ff90511690565b6040518098819482937f10ab265a0000000000000000000000000000000000000000000000000000000084526004840190929160ff60209181604085019616845216910152565b03915afa93841561081a575f94613be5575b508351613bd0575b80613b49565b613bdb945191613e3d565b5f80808080613bca565b613c0191943d8091833e613bf981836108f6565b8101906139d8565b925f613bc2565b613c2491943d8091833e613c1c81836108f6565b810190613979565b925f613b41565b613c4d91925060c03d8111613c54575b613c4581836108f6565b8101906138ba565b905f613adb565b503d613c3b565b919094939294613c836106c360015473ffffffffffffffffffffffffffffffffffffffff1690565b6040517f1955687a00000000000000000000000000000000000000000000000000000000815260ff8481166004830152888116602483015286166044820152909660c0826064818b5afa91821561081a575f92613e1d575b508151613ced575b5050505050505050565b6040517f184af13600000000000000000000000000000000000000000000000000000000815260ff85811660048301529182166024820152951660448601525f856064818a5afa94851561081a575f95613e02575b508451613d50575b80613ce3565b613db19560205f920197613d6a60808a510160ff90511690565b6040518099819482937f10ab265a0000000000000000000000000000000000000000000000000000000084526004840190929160ff60209181604085019616845216910152565b03915afa94851561081a575f95613de7575b508451613dd1575b80613d4a565b613ddc955192613eb1565b5f8080808080613dcb565b613dfb91953d8091833e613bf981836108f6565b935f613dc3565b613e1691953d8091833e613c1c81836108f6565b935f613d42565b613e3691925060c03d8111613c5457613c4581836108f6565b905f613cdb565b90602494939291602073ffffffffffffffffffffffffffffffffffffffff60015416604051978880927fb9a8db6300000000000000000000000000000000000000000000000000000000825260ff871660048301525afa95861561081a5761094496613eaf915f916119755750612892565b905b92613f2090959295949194613ede6106c360015473ffffffffffffffffffffffffffffffffffffffff1690565b6040517fefc0c76900000000000000000000000000000000000000000000000000000000815260ff909816600489015260209283918991829081906024820190565b03915afa96871561081a575f97614272575b505f97969197915b613f4a6132058a84015160ff1690565b83101561426757613f62613205606084015160ff1690565b8301975f5b613f75613205855160ff1690565b81101561425957600190613f90613205604087015160ff1690565b810160ff85168c02018a8181518110918261421f575b50506142175760ff613fcf6131ff6131d985613fc66132058c5160ff1690565b8c02018c613038565b1680613fe1575b505001995b99613f67565b613fee614014918b613773565b517fffffffff000000000000000000000000000000000000000000000000000000001690565b90600290811b6003918c84841a947fff0000000000000000000000000000000000000000000000000000000000000095868160f81b169687145f1461409d575060ff9550614094949392918161408c925f1a6140708684613038565b53808a1a6140808b870184613038565b53831a92840190613038565b53018b613038565b535b5f80613fd6565b94909392956140b2575b505050505050614096565b8201926140ea6140c56131d98685613038565b7fff000000000000000000000000000000000000000000000000000000000000001690565b6141345790614127949582614120935f1a6141058685613038565b53808a1a6141158b870185613038565b53811a930190613038565b538b613038565b535b5f8080808c816140a7565b6131ff6131d9858461420b946142056141fc6141798c8e6141d99d9f6142119f9c9d6141a16141799f856141716131ff6131d98661417995613038565b8b5f1a614291565b60f81b7fff000000000000000000000000000000000000000000000000000000000000001690565b5f1a6141ad828b613038565b5360016141e26141d9614179876141cf6131ff8f966131d99089018098613038565b60018e901a614291565b5f1a918b613038565b5301956141f56131ff6131d9898b613038565b911a614291565b5f1a9183613038565b53613038565b906142ca565b53614129565b500199613fdb565b7fff00000000000000000000000000000000000000000000000000000000000000925061424f916131d991613038565b161515818c613fa6565b509750600190920191613f3a565b505050505050509050565b61428a919750823d841161084a5761083b81836108f6565b955f613f32565b60ff92831691906142a5908390851661287f565b91830383811161282b57836142ba921661287f565b810180911161282b578190041690565b9060ff808093169181831461430a5716828114614305578183039083821161282b5783916142f79161287f565b04810180911161282b571690565b505090565b50505090565b90602491602073ffffffffffffffffffffffffffffffffffffffff60015416604051948580927fa749045200000000000000000000000000000000000000000000000000000000825260ff861660048301525afa92831561081a5761065c9361437f915f916119755750612892565b6143e3565b6040908151610200810181811067ffffffffffffffff8211176108b9578352600f815280925f90815b6101e081106143bc5750505050565b60209082516143ca816108be565b84815282858183015285858301528287010152016143ad565b9092916144086106c360015473ffffffffffffffffffffffffffffffffffffffff1690565b604080517fa749045200000000000000000000000000000000000000000000000000000000815260ff87166004820152909591602091908290829060249082905afa90811561081a575f916147a9575b50845190811061476e575061475461065c949596614474614384565b9461447d610937565b600a81525f82901a81860152600182901a8184015261449b8761367e565b526144a58661367e565b506144ae610937565b60148152600282901a81860152600382901a818401526144cd8761368b565b526144d78661368b565b506144e0610937565b601e8152600482901a81860152600582901a818401526144ff8761369b565b526145098661369b565b50614512610937565b60288152600682901a81860152600782901a81840152614531876136ab565b5261453b866136ab565b50614544610937565b60328152600882901a81860152600982901a81840152614563876136bb565b5261456d866136bb565b50614576610937565b603c8152600a82901a81860152600b82901a81840152614595876136cb565b5261459f866136cb565b506145a8610937565b60468152600c82901a81860152600d82901a818401526145c7876136db565b526145d1866136db565b506145da610937565b60508152600e82901a81860152600f82901a818401526145f9876136eb565b52614603866136eb565b5061460c610937565b60648152601282901a81860152601382901a8184015261462b876136fc565b52614635866136fc565b5061463e610937565b605a8152601082901a81860152601182901a8184015261465d8761370d565b526146678661370d565b50614670610937565b606e8152601482901a81860152601582901a8184015261468f8761371e565b526146998661371e565b506146a2610937565b60788152601682901a81860152601782901a818401526146c18761372f565b526146cb8661372f565b506146d4610937565b60828152601882901a81860152601982901a818401526146f387613740565b526146fd86613740565b50614706610937565b608c8152601a82901a81860152601b82901a8184015261472587613751565b5261472f86613751565b5061474b61473b610937565b6096815294601c83901a90860152565b601d1a90830152565b61475d83613762565b5261476782613762565b5083613787565b86517fec3ad10f00000000000000000000000000000000000000000000000000000000815260ff841660048201526024810191909152604490fd5b6147c09150823d84116117185761170981836108f6565b5f614458565b6147e86106c360015473ffffffffffffffffffffffffffffffffffffffff1690565b5f546040517fefc0c76900000000000000000000000000000000000000000000000000000000815260ff9091166004820181905260209390918481602481875afa801561081a5760ff915f9161492b575b506040517f47dd16bb00000000000000000000000000000000000000000000000000000000815260ff85166004820152911692908581602481885afa801561081a5760049360ff6148959289945f9161490e575b501693614310565b94604051938480927f06e2423f0000000000000000000000000000000000000000000000000000000082525afa91821561081a5761065c955f936148ef575b50506148df8361283e565b926148e98261283e565b94612e26565b614906929350803d106108135761080481836108f6565b905f806148d4565b6149259150853d871161084a5761083b81836108f6565b5f61488d565b6149429150863d881161084a5761083b81836108f6565b5f61483956fea2646970667358221220ff1b2789aa1202ce8a0e5fc478b2ed1b517530671684d3c557f58cc01344a81564736f6c63430008140033",
  "linkReferences": {},
  "deployedLinkReferences": {}
}