{
  "_format": "hh-sol-artifact-1",
  "contractName": "OwnerProxy",
  "sourceName": "contracts/core/lib/OwnerProxy.sol",
  "abi": [
    {
      "inputs": [
        {
          "internalType": "address",
          "name": "masterOwner_",
          "type": "address"
        }
      ],
      "stateMutability": "nonpayable",
      "type": "constructor"
    },
    {
      "inputs": [],
      "name": "NotMasterOwner",
      "type": "error"
    },
    {
      "anonymous": false,
      "inputs": [
        {
          "indexed": true,
          "internalType": "address",
          "name": "previousOwner",
          "type": "address"
        },
        {
          "indexed": true,
          "internalType": "address",
          "name": "newOwner",
          "type": "address"
        }
      ],
      "name": "OwnershipTransferred",
      "type": "event"
    },
    {
      "inputs": [],
      "name": "masterOwner",
      "outputs": [
        {
          "internalType": "address",
          "name": "",
          "type": "address"
        }
      ],
      "stateMutability": "view",
      "type": "function"
    },
    {
      "inputs": [],
      "name": "owner",
      "outputs": [
        {
          "internalType": "address",
          "name": "",
          "type": "address"
        }
      ],
      "stateMutability": "view",
      "type": "function"
    },
    {
      "inputs": [],
      "name": "renounceOwnership",
      "outputs": [],
      "stateMutability": "nonpayable",
      "type": "function"
    },
    {
      "inputs": [],
      "name": "takeOwnership",
      "outputs": [],
      "stateMutability": "nonpayable",
      "type": "function"
    },
    {
      "inputs": [
        {
          "internalType": "address",
          "name": "newOwner",
          "type": "address"
        }
      ],
      "name": "transferOwnership",
      "outputs": [],
      "stateMutability": "nonpayable",
      "type": "function"
    }
  ],
  "bytecode": "0x60a0346100d057601f61055138819003918201601f19168301916001600160401b038311848410176100d4578084926020946040528339810103126100d057516001600160a01b0380821682036100d0575f908154927f8be0079c531659141344cd1fd0a4f28419497f9722a3daafe3b4186f6b6457e09133908516838580a36080526001600160a01b0319928316339384161773f39fd6e51aad88f6f4ce6ab8827279cfffb922669081178355929180a360405161046890816100e9823960805181818161019401526102d70152f35b5f80fd5b634e487b7160e01b5f52604160045260245ffdfe6080806040526004361015610012575f80fd5b5f90813560e01c90816360536172146102a557508063715018a6146102095780638da5cb5b146101b8578063e7201d7d146101495763f2fde38b14610055575f80fd5b346101465760207ffffffffffffffffffffffffffffffffffffffffffffffffffffffffffffffffc3601126101465760043573ffffffffffffffffffffffffffffffffffffffff8116808203610142576100ad61034a565b156100be576100bb906103c8565b80f35b60846040517f08c379a000000000000000000000000000000000000000000000000000000000815260206004820152602660248201527f4f776e61626c653a206e6577206f776e657220697320746865207a65726f206160448201527f64647265737300000000000000000000000000000000000000000000000000006064820152fd5b8280fd5b80fd5b503461014657807ffffffffffffffffffffffffffffffffffffffffffffffffffffffffffffffffc36011261014657602060405173ffffffffffffffffffffffffffffffffffffffff7f0000000000000000000000000000000000000000000000000000000000000000168152f35b503461014657807ffffffffffffffffffffffffffffffffffffffffffffffffffffffffffffffffc3601126101465773ffffffffffffffffffffffffffffffffffffffff6020915416604051908152f35b503461014657807ffffffffffffffffffffffffffffffffffffffffffffffffffffffffffffffffc3601126101465761024061034a565b8073ffffffffffffffffffffffffffffffffffffffff81547fffffffffffffffffffffffff000000000000000000000000000000000000000081168355167f8be0079c531659141344cd1fd0a4f28419497f9722a3daafe3b4186f6b6457e08280a380f35b90503461034657817ffffffffffffffffffffffffffffffffffffffffffffffffffffffffffffffffc360112610346577f00000000000000000000000000000000000000000000000000000000000000009073ffffffffffffffffffffffffffffffffffffffff8216330361031e57506100bb906103c8565b807ff7b413140000000000000000000000000000000000000000000000000000000060049252fd5b5080fd5b73ffffffffffffffffffffffffffffffffffffffff5f5416330361036a57565b60646040517f08c379a000000000000000000000000000000000000000000000000000000000815260206004820152602060248201527f4f776e61626c653a2063616c6c6572206973206e6f7420746865206f776e65726044820152fd5b5f549073ffffffffffffffffffffffffffffffffffffffff80911691827fffffffffffffffffffffffff00000000000000000000000000000000000000008216175f55167f8be0079c531659141344cd1fd0a4f28419497f9722a3daafe3b4186f6b6457e05f80a356fea26469706673582212206755acc77b7b33b5fab07e0c60a4fed8c4b16cdf0bd4b63bb13bd7d6b770ea0664736f6c63430008140033",
  "linkReferences": {},
  "deployedLinkReferences": {}
}